{
  "address": "0x3C4346D92Bcc101E15eC0A5475F58659E53Ba398",
  "abi": [
    {
      "inputs": [],
      "stateMutability": "nonpayable",
      "type": "constructor"
    },
    {
      "anonymous": false,
      "inputs": [
        {
          "indexed": true,
          "internalType": "address",
          "name": "account",
          "type": "address"
        },
        {
          "indexed": true,
          "internalType": "address",
          "name": "operator",
          "type": "address"
        },
        {
          "indexed": false,
          "internalType": "bool",
          "name": "approved",
          "type": "bool"
        }
      ],
      "name": "ApprovalForAll",
      "type": "event"
    },
    {
      "anonymous": false,
      "inputs": [
        {
          "indexed": true,
          "internalType": "address",
          "name": "operator",
          "type": "address"
        },
        {
          "indexed": true,
          "internalType": "address",
          "name": "from",
          "type": "address"
        },
        {
          "indexed": true,
          "internalType": "address",
          "name": "to",
          "type": "address"
        },
        {
          "indexed": false,
          "internalType": "uint256[]",
          "name": "ids",
          "type": "uint256[]"
        },
        {
          "indexed": false,
          "internalType": "uint256[]",
          "name": "values",
          "type": "uint256[]"
        }
      ],
      "name": "TransferBatch",
      "type": "event"
    },
    {
      "anonymous": false,
      "inputs": [
        {
          "indexed": true,
          "internalType": "address",
          "name": "operator",
          "type": "address"
        },
        {
          "indexed": true,
          "internalType": "address",
          "name": "from",
          "type": "address"
        },
        {
          "indexed": true,
          "internalType": "address",
          "name": "to",
          "type": "address"
        },
        {
          "indexed": false,
          "internalType": "uint256",
          "name": "id",
          "type": "uint256"
        },
        {
          "indexed": false,
          "internalType": "uint256",
          "name": "value",
          "type": "uint256"
        }
      ],
      "name": "TransferSingle",
      "type": "event"
    },
    {
      "anonymous": false,
      "inputs": [
        {
          "indexed": false,
          "internalType": "string",
          "name": "value",
          "type": "string"
        },
        {
          "indexed": true,
          "internalType": "uint256",
          "name": "id",
          "type": "uint256"
        }
      ],
      "name": "URI",
      "type": "event"
    },
    {
      "inputs": [],
      "name": "Design_by",
      "outputs": [
        {
          "internalType": "string",
          "name": "",
          "type": "string"
        }
      ],
      "stateMutability": "view",
      "type": "function"
    },
    {
      "inputs": [],
      "name": "Email",
      "outputs": [
        {
          "internalType": "string",
          "name": "",
          "type": "string"
        }
      ],
      "stateMutability": "view",
      "type": "function"
    },
    {
      "inputs": [],
      "name": "Job_Title",
      "outputs": [
        {
          "internalType": "string",
          "name": "",
          "type": "string"
        }
      ],
      "stateMutability": "view",
      "type": "function"
    },
    {
      "inputs": [],
      "name": "Personal_Twitter",
      "outputs": [
        {
          "internalType": "string",
          "name": "",
          "type": "string"
        }
      ],
      "stateMutability": "view",
      "type": "function"
    },
    {
      "inputs": [],
      "name": "SFX_Design",
      "outputs": [
        {
          "internalType": "string",
          "name": "",
          "type": "string"
        }
      ],
      "stateMutability": "view",
      "type": "function"
    },
    {
      "inputs": [],
      "name": "Team",
      "outputs": [
        {
          "internalType": "string",
          "name": "",
          "type": "string"
        }
      ],
      "stateMutability": "view",
      "type": "function"
    },
    {
      "inputs": [],
      "name": "Twitter",
      "outputs": [
        {
          "internalType": "string",
          "name": "",
          "type": "string"
        }
      ],
      "stateMutability": "view",
      "type": "function"
    },
    {
      "inputs": [
        {
          "internalType": "address",
          "name": "account",
          "type": "address"
        },
        {
          "internalType": "uint256",
          "name": "id",
          "type": "uint256"
        }
      ],
      "name": "balanceOf",
      "outputs": [
        {
          "internalType": "uint256",
          "name": "",
          "type": "uint256"
        }
      ],
      "stateMutability": "view",
      "type": "function"
    },
    {
      "inputs": [
        {
          "internalType": "address[]",
          "name": "accounts",
          "type": "address[]"
        },
        {
          "internalType": "uint256[]",
          "name": "ids",
          "type": "uint256[]"
        }
      ],
      "name": "balanceOfBatch",
      "outputs": [
        {
          "internalType": "uint256[]",
          "name": "",
          "type": "uint256[]"
        }
      ],
      "stateMutability": "view",
      "type": "function"
    },
    {
      "inputs": [
        {
          "internalType": "address",
          "name": "to",
          "type": "address"
        },
        {
          "internalType": "uint256",
          "name": "id",
          "type": "uint256"
        },
        {
          "internalType": "uint256",
          "name": "quantity",
          "type": "uint256"
        }
      ],
      "name": "burn",
      "outputs": [],
      "stateMutability": "nonpayable",
      "type": "function"
    },
    {
      "inputs": [
        {
          "internalType": "address",
          "name": "account",
          "type": "address"
        },
        {
          "internalType": "address",
          "name": "operator",
          "type": "address"
        }
      ],
      "name": "isApprovedForAll",
      "outputs": [
        {
          "internalType": "bool",
          "name": "",
          "type": "bool"
        }
      ],
      "stateMutability": "view",
      "type": "function"
    },
    {
      "inputs": [
        {
          "internalType": "address",
          "name": "to",
          "type": "address"
        },
        {
          "internalType": "uint256",
          "name": "id",
          "type": "uint256"
        },
        {
          "internalType": "uint256",
          "name": "quantity",
          "type": "uint256"
        }
      ],
      "name": "mint",
      "outputs": [],
      "stateMutability": "nonpayable",
      "type": "function"
    },
    {
      "inputs": [],
      "name": "name",
      "outputs": [
        {
          "internalType": "string",
          "name": "",
          "type": "string"
        }
      ],
      "stateMutability": "view",
      "type": "function"
    },
    {
      "inputs": [
        {
          "internalType": "address",
          "name": "from",
          "type": "address"
        },
        {
          "internalType": "address",
          "name": "to",
          "type": "address"
        },
        {
          "internalType": "uint256[]",
          "name": "ids",
          "type": "uint256[]"
        },
        {
          "internalType": "uint256[]",
          "name": "amounts",
          "type": "uint256[]"
        },
        {
          "internalType": "bytes",
          "name": "data",
          "type": "bytes"
        }
      ],
      "name": "safeBatchTransferFrom",
      "outputs": [],
      "stateMutability": "nonpayable",
      "type": "function"
    },
    {
      "inputs": [
        {
          "internalType": "address",
          "name": "from",
          "type": "address"
        },
        {
          "internalType": "address",
          "name": "to",
          "type": "address"
        },
        {
          "internalType": "uint256",
          "name": "id",
          "type": "uint256"
        },
        {
          "internalType": "uint256",
          "name": "amount",
          "type": "uint256"
        },
        {
          "internalType": "bytes",
          "name": "data",
          "type": "bytes"
        }
      ],
      "name": "safeTransferFrom",
      "outputs": [],
      "stateMutability": "nonpayable",
      "type": "function"
    },
    {
      "inputs": [
        {
          "internalType": "address",
          "name": "operator",
          "type": "address"
        },
        {
          "internalType": "bool",
          "name": "approved",
          "type": "bool"
        }
      ],
      "name": "setApprovalForAll",
      "outputs": [],
      "stateMutability": "nonpayable",
      "type": "function"
    },
    {
      "inputs": [
        {
          "internalType": "string",
          "name": "baseURI",
          "type": "string"
        }
      ],
      "name": "setBaseURI",
      "outputs": [],
      "stateMutability": "nonpayable",
      "type": "function"
    },
    {
      "inputs": [
        {
          "internalType": "string",
          "name": "newDesign_by",
          "type": "string"
        }
      ],
      "name": "setDesign_by",
      "outputs": [],
      "stateMutability": "nonpayable",
      "type": "function"
    },
    {
      "inputs": [
        {
          "internalType": "string",
          "name": "newEmail",
          "type": "string"
        }
      ],
      "name": "setEmail",
      "outputs": [],
      "stateMutability": "nonpayable",
      "type": "function"
    },
    {
      "inputs": [
        {
          "internalType": "string",
          "name": "newJob_Title",
          "type": "string"
        }
      ],
      "name": "setJob_Title",
      "outputs": [],
      "stateMutability": "nonpayable",
      "type": "function"
    },
    {
      "inputs": [
        {
          "internalType": "string",
          "name": "newName",
          "type": "string"
        }
      ],
      "name": "setName",
      "outputs": [],
      "stateMutability": "nonpayable",
      "type": "function"
    },
    {
      "inputs": [
        {
          "internalType": "string",
          "name": "newPersonal_Twitter",
          "type": "string"
        }
      ],
      "name": "setPersonal_Twitter",
      "outputs": [],
      "stateMutability": "nonpayable",
      "type": "function"
    },
    {
      "inputs": [
        {
          "internalType": "string",
          "name": "newSFX_Design",
          "type": "string"
        }
      ],
      "name": "setSFX_Design",
      "outputs": [],
      "stateMutability": "nonpayable",
      "type": "function"
    },
    {
      "inputs": [
        {
          "internalType": "string",
          "name": "newTeam",
          "type": "string"
        }
      ],
      "name": "setTeam",
      "outputs": [],
      "stateMutability": "nonpayable",
      "type": "function"
    },
    {
      "inputs": [
        {
          "internalType": "string",
          "name": "newTwitter",
          "type": "string"
        }
      ],
      "name": "setTwitter",
      "outputs": [],
      "stateMutability": "nonpayable",
      "type": "function"
    },
    {
      "inputs": [
        {
          "internalType": "bytes4",
          "name": "interfaceId",
          "type": "bytes4"
        }
      ],
      "name": "supportsInterface",
      "outputs": [
        {
          "internalType": "bool",
          "name": "",
          "type": "bool"
        }
      ],
      "stateMutability": "view",
      "type": "function"
    },
    {
      "inputs": [],
      "name": "symbol",
      "outputs": [
        {
          "internalType": "string",
          "name": "",
          "type": "string"
        }
      ],
      "stateMutability": "view",
      "type": "function"
    },
    {
      "inputs": [
        {
          "internalType": "uint256",
          "name": "",
          "type": "uint256"
        }
      ],
      "name": "uri",
      "outputs": [
        {
          "internalType": "string",
          "name": "",
          "type": "string"
        }
      ],
      "stateMutability": "view",
      "type": "function"
    }
  ],
  "transactionHash": "0x5e78313c44b4ad9fd57e4e602bbe35024f94c0f77b6c5e2a4da17c5a6550fe4f",
  "args": [],
  "solcInputHash": "969ea8f7512e30d06c21f526f157ce16",
  "bytecode": "0x60806040526040518060400160405280600381526020017f5a4f450000000000000000000000000000000000000000000000000000000000815250600490805190602001906200005192919062000be0565b506040518060400160405280600381526020017f5a4f450000000000000000000000000000000000000000000000000000000000815250600590805190602001906200009f92919062000be0565b506040518060400160405280600e81526020017f707570757075707569736c616e6400000000000000000000000000000000000081525060069080519060200190620000ed92919062000be0565b506040518060400160405280600d81526020017f47616d652044657369676e657200000000000000000000000000000000000000815250600790805190602001906200013b92919062000be0565b506040518060400160405280601881526020017f707570757075707569736c616e6440676d61696c2e636f6d0000000000000000815250600890805190602001906200018992919062000be0565b506040518060400160405280600f81526020017f40707570757075707569736c616e64000000000000000000000000000000000081525060099080519060200190620001d792919062000be0565b506040518060400160405280600d81526020017f405a6f6579656579656579656500000000000000000000000000000000000000815250600a90805190602001906200022592919062000be0565b506040518060400160405280600e81526020017f707570757075707569736c616e64000000000000000000000000000000000000815250600b90805190602001906200027392919062000be0565b506040518060400160405280600381526020017f5a4f450000000000000000000000000000000000000000000000000000000000815250600c9080519060200190620002c192919062000be0565b50733a58b3f526adc0222d2a081c96c744b9bb822685600d60006101000a81548173ffffffffffffffffffffffffffffffffffffffff021916908373ffffffffffffffffffffffffffffffffffffffff160217905550733045588e18af3c1d614d20564d2614cd65c51238600e60006101000a81548173ffffffffffffffffffffffffffffffffffffffff021916908373ffffffffffffffffffffffffffffffffffffffff1602179055503480156200037957600080fd5b50604051806080016040528060508152602001620052db60509139620003ac6301ffc9a760e01b6200043c60201b60201c565b620003bd816200054560201b60201c565b620003d563d9b67a2660e01b6200043c60201b60201c565b620003ed630e89341c60e01b6200043c60201b60201c565b5062000436600e60009054906101000a900473ffffffffffffffffffffffffffffffffffffffff16600161012c604051806020016040528060008152506200056160201b60201c565b62000d68565b63ffffffff60e01b817bffffffffffffffffffffffffffffffffffffffffffffffffffffffff19161415620004d9576040517f08c379a000000000000000000000000000000000000000000000000000000000815260040180806020018281038252601c8152602001807f4552433136353a20696e76616c696420696e746572666163652069640000000081525060200191505060405180910390fd5b6001600080837bffffffffffffffffffffffffffffffffffffffffffffffffffffffff19167bffffffffffffffffffffffffffffffffffffffffffffffffffffffff1916815260200190815260200160002060006101000a81548160ff02191690831515021790555050565b80600390805190602001906200055d92919062000be0565b5050565b600073ffffffffffffffffffffffffffffffffffffffff168473ffffffffffffffffffffffffffffffffffffffff161415620005e9576040517f08c379a00000000000000000000000000000000000000000000000000000000081526004018080602001828103825260218152602001806200532b6021913960400191505060405180910390fd5b6000620005fb6200079560201b60201c565b9050620006348160008762000616886200079d60201b60201c565b62000627886200079d60201b60201c565b876200081060201b60201c565b6200069e836001600087815260200190815260200160002060008873ffffffffffffffffffffffffffffffffffffffff1673ffffffffffffffffffffffffffffffffffffffff168152602001908152602001600020546200081860201b620034a31790919060201c565b6001600086815260200190815260200160002060008773ffffffffffffffffffffffffffffffffffffffff1673ffffffffffffffffffffffffffffffffffffffff168152602001908152602001600020819055508473ffffffffffffffffffffffffffffffffffffffff16600073ffffffffffffffffffffffffffffffffffffffff168273ffffffffffffffffffffffffffffffffffffffff167fc3d58168c5ae7397731d063d5bbf3d657854427343f4c083240f7aacaa2d0f628787604051808381526020018281526020019250505060405180910390a46200078e81600087878787620008a160201b60201c565b5050505050565b600033905090565b606080600167ffffffffffffffff81118015620007b957600080fd5b50604051908082528060200260200182016040528015620007e95781602001602082028036833780820191505090505b5090508281600081518110620007fb57fe5b60200260200101818152505080915050919050565b505050505050565b60008082840190508381101562000897576040517f08c379a000000000000000000000000000000000000000000000000000000000815260040180806020018281038252601b8152602001807f536166654d6174683a206164646974696f6e206f766572666c6f77000000000081525060200191505060405180910390fd5b8091505092915050565b620008cd8473ffffffffffffffffffffffffffffffffffffffff1662000bcd60201b6200352b1760201c565b1562000bc5578373ffffffffffffffffffffffffffffffffffffffff1663f23a6e6187878686866040518663ffffffff1660e01b8152600401808673ffffffffffffffffffffffffffffffffffffffff1681526020018573ffffffffffffffffffffffffffffffffffffffff16815260200184815260200183815260200180602001828103825283818151815260200191508051906020019080838360005b83811015620009895780820151818401526020810190506200096c565b50505050905090810190601f168015620009b75780820380516001836020036101000a031916815260200191505b509650505050505050602060405180830381600087803b158015620009db57600080fd5b505af192505050801562000a1157506040513d6020811015620009fd57600080fd5b810190808051906020019092919050505060015b62000b245762000a2062000ca4565b8062000a2d575062000ad2565b806040517f08c379a00000000000000000000000000000000000000000000000000000000081526004018080602001828103825283818151815260200191508051906020019080838360005b8381101562000a9657808201518184015260208101905062000a79565b50505050905090810190601f16801562000ac45780820380516001836020036101000a031916815260200191505b509250505060405180910390fd5b6040517f08c379a00000000000000000000000000000000000000000000000000000000081526004018080602001828103825260348152602001806200527f6034913960400191505060405180910390fd5b63f23a6e6160e01b7bffffffffffffffffffffffffffffffffffffffffffffffffffffffff1916817bffffffffffffffffffffffffffffffffffffffffffffffffffffffff19161462000bc3576040517f08c379a0000000000000000000000000000000000000000000000000000000008152600401808060200182810382526028815260200180620052b36028913960400191505060405180910390fd5b505b505050505050565b600080823b905060008111915050919050565b828054600181600116156101000203166002900490600052602060002090601f016020900481019282601f1062000c2357805160ff191683800117855562000c54565b8280016001018555821562000c54579182015b8281111562000c5357825182559160200191906001019062000c36565b5b50905062000c63919062000c67565b5090565b5b8082111562000c8257600081600090555060010162000c68565b5090565b6000601f19601f8301169050919050565b60008160e01c9050919050565b600060443d101562000cb65762000d65565b60046000803e62000cc960005162000c97565b6308c379a0811462000cdc575062000d65565b60405160043d036004823e80513d602482011167ffffffffffffffff8211171562000d0a5750505062000d65565b808201805167ffffffffffffffff81111562000d2b57505050505062000d65565b8060208301013d850181111562000d485750505050505062000d65565b62000d538262000c86565b60208401016040528296505050505050505b90565b6145078062000d786000396000f3fe608060405234801561001057600080fd5b50600436106101c25760003560e01c8063639e01dd116100f9578063c2a5e5c211610097578063e86a3b8b11610071578063e86a3b8b1461124a578063e985e9c5146112cd578063f242432a14611347578063f5298aca14611456576101c2565b8063c2a5e5c214611019578063c47f0027146110d4578063e35692871461118f576101c2565b80638735741d116100d35780638735741d14610e0857806395d89b4114610ec3578063a22cb46514610f46578063c1fe073314610f96576101c2565b8063639e01dd14610c0f5780637356cf9614610c925780637747111814610d4d576101c2565b8063156e29f61161016657806330e290e41161014057806330e290e41461087557806335779b84146108f85780634e1273f4146109b357806355f804b314610b54576101c2565b8063156e29f61461053f578063282b065a146105975780632eb2c2d614610652576101c2565b806306d5c5c6116101a257806306d5c5c61461030f57806306fdde031461039257806309f5c4e4146104155780630e89341c14610498576101c2565b8062308982146101c7578062fdd58e1461024a57806301ffc9a7146102ac575b600080fd5b6101cf6114ae565b6040518080602001828103825283818151815260200191508051906020019080838360005b8381101561020f5780820151818401526020810190506101f4565b50505050905090810190601f16801561023c5780820380516001836020036101000a031916815260200191505b509250505060405180910390f35b6102966004803603604081101561026057600080fd5b81019080803573ffffffffffffffffffffffffffffffffffffffff1690602001909291908035906020019092919050505061154c565b6040518082815260200191505060405180910390f35b6102f7600480360360208110156102c257600080fd5b8101908080357bffffffffffffffffffffffffffffffffffffffffffffffffffffffff1916906020019092919050505061162c565b60405180821515815260200191505060405180910390f35b610317611693565b6040518080602001828103825283818151815260200191508051906020019080838360005b8381101561035757808201518184015260208101905061033c565b50505050905090810190601f1680156103845780820380516001836020036101000a031916815260200191505b509250505060405180910390f35b61039a611731565b6040518080602001828103825283818151815260200191508051906020019080838360005b838110156103da5780820151818401526020810190506103bf565b50505050905090810190601f1680156104075780820380516001836020036101000a031916815260200191505b509250505060405180910390f35b61041d6117d3565b6040518080602001828103825283818151815260200191508051906020019080838360005b8381101561045d578082015181840152602081019050610442565b50505050905090810190601f16801561048a5780820380516001836020036101000a031916815260200191505b509250505060405180910390f35b6104c4600480360360208110156104ae57600080fd5b8101908080359060200190929190505050611871565b6040518080602001828103825283818151815260200191508051906020019080838360005b838110156105045780820151818401526020810190506104e9565b50505050905090810190601f1680156105315780820380516001836020036101000a031916815260200191505b509250505060405180910390f35b6105956004803603606081101561055557600080fd5b81019080803573ffffffffffffffffffffffffffffffffffffffff1690602001909291908035906020019092919080359060200190929190505050611915565b005b610650600480360360208110156105ad57600080fd5b81019080803590602001906401000000008111156105ca57600080fd5b8201836020820111156105dc57600080fd5b803590602001918460018302840111640100000000831117156105fe57600080fd5b91908080601f016020809104026020016040519081016040528093929190818152602001838380828437600081840152601f19601f820116905080830192505050505050509192919290505050611a50565b005b610873600480360360a081101561066857600080fd5b81019080803573ffffffffffffffffffffffffffffffffffffffff169060200190929190803573ffffffffffffffffffffffffffffffffffffffff169060200190929190803590602001906401000000008111156106c557600080fd5b8201836020820111156106d757600080fd5b803590602001918460208302840111640100000000831117156106f957600080fd5b919080806020026020016040519081016040528093929190818152602001838360200280828437600081840152601f19601f8201169050808301925050505050505091929192908035906020019064010000000081111561075957600080fd5b82018360208201111561076b57600080fd5b8035906020019184602083028401116401000000008311171561078d57600080fd5b919080806020026020016040519081016040528093929190818152602001838360200280828437600081840152601f19601f820116905080830192505050505050509192919290803590602001906401000000008111156107ed57600080fd5b8201836020820111156107ff57600080fd5b8035906020019184600183028401116401000000008311171561082157600080fd5b91908080601f016020809104026020016040519081016040528093929190818152602001838380828437600081840152601f19601f820116905080830192505050505050509192919290505050611b85565b005b61087d612010565b6040518080602001828103825283818151815260200191508051906020019080838360005b838110156108bd5780820151818401526020810190506108a2565b50505050905090810190601f1680156108ea5780820380516001836020036101000a031916815260200191505b509250505060405180910390f35b6109b16004803603602081101561090e57600080fd5b810190808035906020019064010000000081111561092b57600080fd5b82018360208201111561093d57600080fd5b8035906020019184600183028401116401000000008311171561095f57600080fd5b91908080601f016020809104026020016040519081016040528093929190818152602001838380828437600081840152601f19601f8201169050808301925050505050505091929192905050506120ae565b005b610afd600480360360408110156109c957600080fd5b81019080803590602001906401000000008111156109e657600080fd5b8201836020820111156109f857600080fd5b80359060200191846020830284011164010000000083111715610a1a57600080fd5b919080806020026020016040519081016040528093929190818152602001838360200280828437600081840152601f19601f82011690508083019250505050505050919291929080359060200190640100000000811115610a7a57600080fd5b820183602082011115610a8c57600080fd5b80359060200191846020830284011164010000000083111715610aae57600080fd5b919080806020026020016040519081016040528093929190818152602001838360200280828437600081840152601f19601f8201169050808301925050505050505091929192905050506121e3565b6040518080602001828103825283818151815260200191508051906020019060200280838360005b83811015610b40578082015181840152602081019050610b25565b505050509050019250505060405180910390f35b610c0d60048036036020811015610b6a57600080fd5b8101908080359060200190640100000000811115610b8757600080fd5b820183602082011115610b9957600080fd5b80359060200191846001830284011164010000000083111715610bbb57600080fd5b91908080601f016020809104026020016040519081016040528093929190818152602001838380828437600081840152601f19601f8201169050808301925050505050505091929192905050506122f5565b005b610c1761241c565b6040518080602001828103825283818151815260200191508051906020019080838360005b83811015610c57578082015181840152602081019050610c3c565b50505050905090810190601f168015610c845780820380516001836020036101000a031916815260200191505b509250505060405180910390f35b610d4b60048036036020811015610ca857600080fd5b8101908080359060200190640100000000811115610cc557600080fd5b820183602082011115610cd757600080fd5b80359060200191846001830284011164010000000083111715610cf957600080fd5b91908080601f016020809104026020016040519081016040528093929190818152602001838380828437600081840152601f19601f8201169050808301925050505050505091929192905050506124ba565b005b610e0660048036036020811015610d6357600080fd5b8101908080359060200190640100000000811115610d8057600080fd5b820183602082011115610d9257600080fd5b80359060200191846001830284011164010000000083111715610db457600080fd5b91908080601f016020809104026020016040519081016040528093929190818152602001838380828437600081840152601f19601f8201169050808301925050505050505091929192905050506125ef565b005b610ec160048036036020811015610e1e57600080fd5b8101908080359060200190640100000000811115610e3b57600080fd5b820183602082011115610e4d57600080fd5b80359060200191846001830284011164010000000083111715610e6f57600080fd5b91908080601f016020809104026020016040519081016040528093929190818152602001838380828437600081840152601f19601f820116905080830192505050505050509192919290505050612724565b005b610ecb612859565b6040518080602001828103825283818151815260200191508051906020019080838360005b83811015610f0b578082015181840152602081019050610ef0565b50505050905090810190601f168015610f385780820380516001836020036101000a031916815260200191505b509250505060405180910390f35b610f9460048036036040811015610f5c57600080fd5b81019080803573ffffffffffffffffffffffffffffffffffffffff1690602001909291908035151590602001909291905050506128fb565b005b610f9e612a94565b6040518080602001828103825283818151815260200191508051906020019080838360005b83811015610fde578082015181840152602081019050610fc3565b50505050905090810190601f16801561100b5780820380516001836020036101000a031916815260200191505b509250505060405180910390f35b6110d26004803603602081101561102f57600080fd5b810190808035906020019064010000000081111561104c57600080fd5b82018360208201111561105e57600080fd5b8035906020019184600183028401116401000000008311171561108057600080fd5b91908080601f016020809104026020016040519081016040528093929190818152602001838380828437600081840152601f19601f820116905080830192505050505050509192919290505050612b32565b005b61118d600480360360208110156110ea57600080fd5b810190808035906020019064010000000081111561110757600080fd5b82018360208201111561111957600080fd5b8035906020019184600183028401116401000000008311171561113b57600080fd5b91908080601f016020809104026020016040519081016040528093929190818152602001838380828437600081840152601f19601f820116905080830192505050505050509192919290505050612c67565b005b611248600480360360208110156111a557600080fd5b81019080803590602001906401000000008111156111c257600080fd5b8201836020820111156111d457600080fd5b803590602001918460018302840111640100000000831117156111f657600080fd5b91908080601f016020809104026020016040519081016040528093929190818152602001838380828437600081840152601f19601f820116905080830192505050505050509192919290505050612d9c565b005b611252612ed1565b6040518080602001828103825283818151815260200191508051906020019080838360005b83811015611292578082015181840152602081019050611277565b50505050905090810190601f1680156112bf5780820380516001836020036101000a031916815260200191505b509250505060405180910390f35b61132f600480360360408110156112e357600080fd5b81019080803573ffffffffffffffffffffffffffffffffffffffff169060200190929190803573ffffffffffffffffffffffffffffffffffffffff169060200190929190505050612f6f565b60405180821515815260200191505060405180910390f35b611454600480360360a081101561135d57600080fd5b81019080803573ffffffffffffffffffffffffffffffffffffffff169060200190929190803573ffffffffffffffffffffffffffffffffffffffff1690602001909291908035906020019092919080359060200190929190803590602001906401000000008111156113ce57600080fd5b8201836020820111156113e057600080fd5b8035906020019184600183028401116401000000008311171561140257600080fd5b91908080601f016020809104026020016040519081016040528093929190818152602001838380828437600081840152601f19601f820116905080830192505050505050509192919290505050613003565b005b6114ac6004803603606081101561146c57600080fd5b81019080803573ffffffffffffffffffffffffffffffffffffffff1690602001909291908035906020019092919080359060200190929190505050613378565b005b600b8054600181600116156101000203166002900480601f0160208091040260200160405190810160405280929190818152602001828054600181600116156101000203166002900480156115445780601f1061151957610100808354040283529160200191611544565b820191906000526020600020905b81548152906001019060200180831161152757829003601f168201915b505050505081565b60008073ffffffffffffffffffffffffffffffffffffffff168373ffffffffffffffffffffffffffffffffffffffff1614156115d3576040517f08c379a000000000000000000000000000000000000000000000000000000000815260040180806020018281038252602b81526020018061431b602b913960400191505060405180910390fd5b6001600083815260200190815260200160002060008473ffffffffffffffffffffffffffffffffffffffff1673ffffffffffffffffffffffffffffffffffffffff16815260200190815260200160002054905092915050565b6000806000837bffffffffffffffffffffffffffffffffffffffffffffffffffffffff19167bffffffffffffffffffffffffffffffffffffffffffffffffffffffff1916815260200190815260200160002060009054906101000a900460ff169050919050565b60088054600181600116156101000203166002900480601f0160208091040260200160405190810160405280929190818152602001828054600181600116156101000203166002900480156117295780601f106116fe57610100808354040283529160200191611729565b820191906000526020600020905b81548152906001019060200180831161170c57829003601f168201915b505050505081565b606060048054600181600116156101000203166002900480601f0160208091040260200160405190810160405280929190818152602001828054600181600116156101000203166002900480156117c95780601f1061179e576101008083540402835291602001916117c9565b820191906000526020600020905b8154815290600101906020018083116117ac57829003601f168201915b5050505050905090565b600c8054600181600116156101000203166002900480601f0160208091040260200160405190810160405280929190818152602001828054600181600116156101000203166002900480156118695780601f1061183e57610100808354040283529160200191611869565b820191906000526020600020905b81548152906001019060200180831161184c57829003601f168201915b505050505081565b606060038054600181600116156101000203166002900480601f0160208091040260200160405190810160405280929190818152602001828054600181600116156101000203166002900480156119095780601f106118de57610100808354040283529160200191611909565b820191906000526020600020905b8154815290600101906020018083116118ec57829003601f168201915b50505050509050919050565b600d60009054906101000a900473ffffffffffffffffffffffffffffffffffffffff1673ffffffffffffffffffffffffffffffffffffffff163373ffffffffffffffffffffffffffffffffffffffff1614806119be5750600e60009054906101000a900473ffffffffffffffffffffffffffffffffffffffff1673ffffffffffffffffffffffffffffffffffffffff163373ffffffffffffffffffffffffffffffffffffffff16145b611a30576040517f08c379a00000000000000000000000000000000000000000000000000000000081526004018080602001828103825260138152602001807f43414c4c45525f49535f4e4f545f4f574e45520000000000000000000000000081525060200191505060405180910390fd5b611a4b8383836040518060200160405280600081525061353e565b505050565b600d60009054906101000a900473ffffffffffffffffffffffffffffffffffffffff1673ffffffffffffffffffffffffffffffffffffffff163373ffffffffffffffffffffffffffffffffffffffff161480611af95750600e60009054906101000a900473ffffffffffffffffffffffffffffffffffffffff1673ffffffffffffffffffffffffffffffffffffffff163373ffffffffffffffffffffffffffffffffffffffff16145b611b6b576040517f08c379a00000000000000000000000000000000000000000000000000000000081526004018080602001828103825260138152602001807f43414c4c45525f49535f4e4f545f4f574e45520000000000000000000000000081525060200191505060405180910390fd5b8060089080519060200190611b8192919061414d565b5050565b8151835114611bdf576040517f08c379a00000000000000000000000000000000000000000000000000000000081526004018080602001828103825260288152602001806144896028913960400191505060405180910390fd5b600073ffffffffffffffffffffffffffffffffffffffff168473ffffffffffffffffffffffffffffffffffffffff161415611c65576040517f08c379a00000000000000000000000000000000000000000000000000000000081526004018080602001828103825260258152602001806143936025913960400191505060405180910390fd5b611c6d613741565b73ffffffffffffffffffffffffffffffffffffffff168573ffffffffffffffffffffffffffffffffffffffff161480611cb35750611cb285611cad613741565b612f6f565b5b611d08576040517f08c379a00000000000000000000000000000000000000000000000000000000081526004018080602001828103825260328152602001806143b86032913960400191505060405180910390fd5b6000611d12613741565b9050611d22818787878787613749565b60005b8451811015611ef3576000858281518110611d3c57fe5b602002602001015190506000858381518110611d5457fe5b60200260200101519050611ddb816040518060600160405280602a815260200161440d602a91396001600086815260200190815260200160002060008d73ffffffffffffffffffffffffffffffffffffffff1673ffffffffffffffffffffffffffffffffffffffff168152602001908152602001600020546137519092919063ffffffff16565b6001600084815260200190815260200160002060008b73ffffffffffffffffffffffffffffffffffffffff1673ffffffffffffffffffffffffffffffffffffffff16815260200190815260200160002081905550611e92816001600085815260200190815260200160002060008b73ffffffffffffffffffffffffffffffffffffffff1673ffffffffffffffffffffffffffffffffffffffff168152602001908152602001600020546134a390919063ffffffff16565b6001600084815260200190815260200160002060008a73ffffffffffffffffffffffffffffffffffffffff1673ffffffffffffffffffffffffffffffffffffffff168152602001908152602001600020819055505050806001019050611d25565b508473ffffffffffffffffffffffffffffffffffffffff168673ffffffffffffffffffffffffffffffffffffffff168273ffffffffffffffffffffffffffffffffffffffff167f4a39dc06d4c0dbc64b70af90fd698a233a518aa5d07e595d983b8c0526c8f7fb8787604051808060200180602001838103835285818151815260200191508051906020019060200280838360005b83811015611fa3578082015181840152602081019050611f88565b50505050905001838103825284818151815260200191508051906020019060200280838360005b83811015611fe5578082015181840152602081019050611fca565b5050505090500194505050505060405180910390a461200881878787878761380b565b505050505050565b60098054600181600116156101000203166002900480601f0160208091040260200160405190810160405280929190818152602001828054600181600116156101000203166002900480156120a65780601f1061207b576101008083540402835291602001916120a6565b820191906000526020600020905b81548152906001019060200180831161208957829003601f168201915b505050505081565b600d60009054906101000a900473ffffffffffffffffffffffffffffffffffffffff1673ffffffffffffffffffffffffffffffffffffffff163373ffffffffffffffffffffffffffffffffffffffff1614806121575750600e60009054906101000a900473ffffffffffffffffffffffffffffffffffffffff1673ffffffffffffffffffffffffffffffffffffffff163373ffffffffffffffffffffffffffffffffffffffff16145b6121c9576040517f08c379a00000000000000000000000000000000000000000000000000000000081526004018080602001828103825260138152602001807f43414c4c45525f49535f4e4f545f4f574e45520000000000000000000000000081525060200191505060405180910390fd5b80600c90805190602001906121df92919061414d565b5050565b6060815183511461223f576040517f08c379a00000000000000000000000000000000000000000000000000000000081526004018080602001828103825260298152602001806144606029913960400191505060405180910390fd5b6060835167ffffffffffffffff8111801561225957600080fd5b506040519080825280602002602001820160405280156122885781602001602082028036833780820191505090505b50905060005b84518110156122ea576122c78582815181106122a657fe5b60200260200101518583815181106122ba57fe5b602002602001015161154c565b8282815181106122d357fe5b60200260200101818152505080600101905061228e565b508091505092915050565b600d60009054906101000a900473ffffffffffffffffffffffffffffffffffffffff1673ffffffffffffffffffffffffffffffffffffffff163373ffffffffffffffffffffffffffffffffffffffff16148061239e5750600e60009054906101000a900473ffffffffffffffffffffffffffffffffffffffff1673ffffffffffffffffffffffffffffffffffffffff163373ffffffffffffffffffffffffffffffffffffffff16145b612410576040517f08c379a00000000000000000000000000000000000000000000000000000000081526004018080602001828103825260138152602001807f43414c4c45525f49535f4e4f545f4f574e45520000000000000000000000000081525060200191505060405180910390fd5b61241981613b9a565b50565b60068054600181600116156101000203166002900480601f0160208091040260200160405190810160405280929190818152602001828054600181600116156101000203166002900480156124b25780601f10612487576101008083540402835291602001916124b2565b820191906000526020600020905b81548152906001019060200180831161249557829003601f168201915b505050505081565b600d60009054906101000a900473ffffffffffffffffffffffffffffffffffffffff1673ffffffffffffffffffffffffffffffffffffffff163373ffffffffffffffffffffffffffffffffffffffff1614806125635750600e60009054906101000a900473ffffffffffffffffffffffffffffffffffffffff1673ffffffffffffffffffffffffffffffffffffffff163373ffffffffffffffffffffffffffffffffffffffff16145b6125d5576040517f08c379a00000000000000000000000000000000000000000000000000000000081526004018080602001828103825260138152602001807f43414c4c45525f49535f4e4f545f4f574e45520000000000000000000000000081525060200191505060405180910390fd5b80600b90805190602001906125eb92919061414d565b5050565b600d60009054906101000a900473ffffffffffffffffffffffffffffffffffffffff1673ffffffffffffffffffffffffffffffffffffffff163373ffffffffffffffffffffffffffffffffffffffff1614806126985750600e60009054906101000a900473ffffffffffffffffffffffffffffffffffffffff1673ffffffffffffffffffffffffffffffffffffffff163373ffffffffffffffffffffffffffffffffffffffff16145b61270a576040517f08c379a00000000000000000000000000000000000000000000000000000000081526004018080602001828103825260138152602001807f43414c4c45525f49535f4e4f545f4f574e45520000000000000000000000000081525060200191505060405180910390fd5b806007908051906020019061272092919061414d565b5050565b600d60009054906101000a900473ffffffffffffffffffffffffffffffffffffffff1673ffffffffffffffffffffffffffffffffffffffff163373ffffffffffffffffffffffffffffffffffffffff1614806127cd5750600e60009054906101000a900473ffffffffffffffffffffffffffffffffffffffff1673ffffffffffffffffffffffffffffffffffffffff163373ffffffffffffffffffffffffffffffffffffffff16145b61283f576040517f08c379a00000000000000000000000000000000000000000000000000000000081526004018080602001828103825260138152602001807f43414c4c45525f49535f4e4f545f4f574e45520000000000000000000000000081525060200191505060405180910390fd5b806006908051906020019061285592919061414d565b5050565b606060058054600181600116156101000203166002900480601f0160208091040260200160405190810160405280929190818152602001828054600181600116156101000203166002900480156128f15780601f106128c6576101008083540402835291602001916128f1565b820191906000526020600020905b8154815290600101906020018083116128d457829003601f168201915b5050505050905090565b8173ffffffffffffffffffffffffffffffffffffffff1661291a613741565b73ffffffffffffffffffffffffffffffffffffffff161415612987576040517f08c379a00000000000000000000000000000000000000000000000000000000081526004018080602001828103825260298152602001806144376029913960400191505060405180910390fd5b8060026000612994613741565b73ffffffffffffffffffffffffffffffffffffffff1673ffffffffffffffffffffffffffffffffffffffff16815260200190815260200160002060008473ffffffffffffffffffffffffffffffffffffffff1673ffffffffffffffffffffffffffffffffffffffff16815260200190815260200160002060006101000a81548160ff0219169083151502179055508173ffffffffffffffffffffffffffffffffffffffff16612a41613741565b73ffffffffffffffffffffffffffffffffffffffff167f17307eab39ab6107e8899845ad3d59bd9653f200f220920489ca2b5937696c318360405180821515815260200191505060405180910390a35050565b60078054600181600116156101000203166002900480601f016020809104026020016040519081016040528092919081815260200182805460018160011615610100020316600290048015612b2a5780601f10612aff57610100808354040283529160200191612b2a565b820191906000526020600020905b815481529060010190602001808311612b0d57829003601f168201915b505050505081565b600d60009054906101000a900473ffffffffffffffffffffffffffffffffffffffff1673ffffffffffffffffffffffffffffffffffffffff163373ffffffffffffffffffffffffffffffffffffffff161480612bdb5750600e60009054906101000a900473ffffffffffffffffffffffffffffffffffffffff1673ffffffffffffffffffffffffffffffffffffffff163373ffffffffffffffffffffffffffffffffffffffff16145b612c4d576040517f08c379a00000000000000000000000000000000000000000000000000000000081526004018080602001828103825260138152602001807f43414c4c45525f49535f4e4f545f4f574e45520000000000000000000000000081525060200191505060405180910390fd5b8060099080519060200190612c6392919061414d565b5050565b600d60009054906101000a900473ffffffffffffffffffffffffffffffffffffffff1673ffffffffffffffffffffffffffffffffffffffff163373ffffffffffffffffffffffffffffffffffffffff161480612d105750600e60009054906101000a900473ffffffffffffffffffffffffffffffffffffffff1673ffffffffffffffffffffffffffffffffffffffff163373ffffffffffffffffffffffffffffffffffffffff16145b612d82576040517f08c379a00000000000000000000000000000000000000000000000000000000081526004018080602001828103825260138152602001807f43414c4c45525f49535f4e4f545f4f574e45520000000000000000000000000081525060200191505060405180910390fd5b8060049080519060200190612d9892919061414d565b5050565b600d60009054906101000a900473ffffffffffffffffffffffffffffffffffffffff1673ffffffffffffffffffffffffffffffffffffffff163373ffffffffffffffffffffffffffffffffffffffff161480612e455750600e60009054906101000a900473ffffffffffffffffffffffffffffffffffffffff1673ffffffffffffffffffffffffffffffffffffffff163373ffffffffffffffffffffffffffffffffffffffff16145b612eb7576040517f08c379a00000000000000000000000000000000000000000000000000000000081526004018080602001828103825260138152602001807f43414c4c45525f49535f4e4f545f4f574e45520000000000000000000000000081525060200191505060405180910390fd5b80600a9080519060200190612ecd92919061414d565b5050565b600a8054600181600116156101000203166002900480601f016020809104026020016040519081016040528092919081815260200182805460018160011615610100020316600290048015612f675780601f10612f3c57610100808354040283529160200191612f67565b820191906000526020600020905b815481529060010190602001808311612f4a57829003601f168201915b505050505081565b6000600260008473ffffffffffffffffffffffffffffffffffffffff1673ffffffffffffffffffffffffffffffffffffffff16815260200190815260200160002060008373ffffffffffffffffffffffffffffffffffffffff1673ffffffffffffffffffffffffffffffffffffffff16815260200190815260200160002060009054906101000a900460ff16905092915050565b600073ffffffffffffffffffffffffffffffffffffffff168473ffffffffffffffffffffffffffffffffffffffff161415613089576040517f08c379a00000000000000000000000000000000000000000000000000000000081526004018080602001828103825260258152602001806143936025913960400191505060405180910390fd5b613091613741565b73ffffffffffffffffffffffffffffffffffffffff168573ffffffffffffffffffffffffffffffffffffffff1614806130d757506130d6856130d1613741565b612f6f565b5b61312c576040517f08c379a000000000000000000000000000000000000000000000000000000000815260040180806020018281038252602981526020018061436a6029913960400191505060405180910390fd5b6000613136613741565b905061315681878761314788613bb4565b61315088613bb4565b87613749565b6131d3836040518060600160405280602a815260200161440d602a91396001600088815260200190815260200160002060008a73ffffffffffffffffffffffffffffffffffffffff1673ffffffffffffffffffffffffffffffffffffffff168152602001908152602001600020546137519092919063ffffffff16565b6001600086815260200190815260200160002060008873ffffffffffffffffffffffffffffffffffffffff1673ffffffffffffffffffffffffffffffffffffffff1681526020019081526020016000208190555061328a836001600087815260200190815260200160002060008873ffffffffffffffffffffffffffffffffffffffff1673ffffffffffffffffffffffffffffffffffffffff168152602001908152602001600020546134a390919063ffffffff16565b6001600086815260200190815260200160002060008773ffffffffffffffffffffffffffffffffffffffff1673ffffffffffffffffffffffffffffffffffffffff168152602001908152602001600020819055508473ffffffffffffffffffffffffffffffffffffffff168673ffffffffffffffffffffffffffffffffffffffff168273ffffffffffffffffffffffffffffffffffffffff167fc3d58168c5ae7397731d063d5bbf3d657854427343f4c083240f7aacaa2d0f628787604051808381526020018281526020019250505060405180910390a4613370818787878787613c24565b505050505050565b600d60009054906101000a900473ffffffffffffffffffffffffffffffffffffffff1673ffffffffffffffffffffffffffffffffffffffff163373ffffffffffffffffffffffffffffffffffffffff1614806134215750600e60009054906101000a900473ffffffffffffffffffffffffffffffffffffffff1673ffffffffffffffffffffffffffffffffffffffff163373ffffffffffffffffffffffffffffffffffffffff16145b613493576040517f08c379a00000000000000000000000000000000000000000000000000000000081526004018080602001828103825260138152602001807f43414c4c45525f49535f4e4f545f4f574e45520000000000000000000000000081525060200191505060405180910390fd5b61349e838383613f31565b505050565b600080828401905083811015613521576040517f08c379a000000000000000000000000000000000000000000000000000000000815260040180806020018281038252601b8152602001807f536166654d6174683a206164646974696f6e206f766572666c6f77000000000081525060200191505060405180910390fd5b8091505092915050565b600080823b905060008111915050919050565b600073ffffffffffffffffffffffffffffffffffffffff168473ffffffffffffffffffffffffffffffffffffffff1614156135c4576040517f08c379a00000000000000000000000000000000000000000000000000000000081526004018080602001828103825260218152602001806144b16021913960400191505060405180910390fd5b60006135ce613741565b90506135ef816000876135e088613bb4565b6135e988613bb4565b87613749565b613652836001600087815260200190815260200160002060008873ffffffffffffffffffffffffffffffffffffffff1673ffffffffffffffffffffffffffffffffffffffff168152602001908152602001600020546134a390919063ffffffff16565b6001600086815260200190815260200160002060008773ffffffffffffffffffffffffffffffffffffffff1673ffffffffffffffffffffffffffffffffffffffff168152602001908152602001600020819055508473ffffffffffffffffffffffffffffffffffffffff16600073ffffffffffffffffffffffffffffffffffffffff168273ffffffffffffffffffffffffffffffffffffffff167fc3d58168c5ae7397731d063d5bbf3d657854427343f4c083240f7aacaa2d0f628787604051808381526020018281526020019250505060405180910390a461373a81600087878787613c24565b5050505050565b600033905090565b505050505050565b60008383111582906137fe576040517f08c379a00000000000000000000000000000000000000000000000000000000081526004018080602001828103825283818151815260200191508051906020019080838360005b838110156137c35780820151818401526020810190506137a8565b50505050905090810190601f1680156137f05780820380516001836020036101000a031916815260200191505b509250505060405180910390fd5b5082840390509392505050565b61382a8473ffffffffffffffffffffffffffffffffffffffff1661352b565b15613b92578373ffffffffffffffffffffffffffffffffffffffff1663bc197c8187878686866040518663ffffffff1660e01b8152600401808673ffffffffffffffffffffffffffffffffffffffff1681526020018573ffffffffffffffffffffffffffffffffffffffff168152602001806020018060200180602001848103845287818151815260200191508051906020019060200280838360005b838110156138e25780820151818401526020810190506138c7565b50505050905001848103835286818151815260200191508051906020019060200280838360005b83811015613924578082015181840152602081019050613909565b50505050905001848103825285818151815260200191508051906020019080838360005b83811015613963578082015181840152602081019050613948565b50505050905090810190601f1680156139905780820380516001836020036101000a031916815260200191505b5098505050505050505050602060405180830381600087803b1580156139b557600080fd5b505af19250505080156139e957506040513d60208110156139d557600080fd5b810190808051906020019092919050505060015b613af3576139f5614208565b80613a005750613aa2565b806040517f08c379a00000000000000000000000000000000000000000000000000000000081526004018080602001828103825283818151815260200191508051906020019080838360005b83811015613a67578082015181840152602081019050613a4c565b50505050905090810190601f168015613a945780820380516001836020036101000a031916815260200191505b509250505060405180910390fd5b6040517f08c379a00000000000000000000000000000000000000000000000000000000081526004018080602001828103825260348152602001806142bf6034913960400191505060405180910390fd5b63bc197c8160e01b7bffffffffffffffffffffffffffffffffffffffffffffffffffffffff1916817bffffffffffffffffffffffffffffffffffffffffffffffffffffffff191614613b90576040517f08c379a00000000000000000000000000000000000000000000000000000000081526004018080602001828103825260288152602001806142f36028913960400191505060405180910390fd5b505b505050505050565b8060039080519060200190613bb092919061414d565b5050565b606080600167ffffffffffffffff81118015613bcf57600080fd5b50604051908082528060200260200182016040528015613bfe5781602001602082028036833780820191505090505b5090508281600081518110613c0f57fe5b60200260200101818152505080915050919050565b613c438473ffffffffffffffffffffffffffffffffffffffff1661352b565b15613f29578373ffffffffffffffffffffffffffffffffffffffff1663f23a6e6187878686866040518663ffffffff1660e01b8152600401808673ffffffffffffffffffffffffffffffffffffffff1681526020018573ffffffffffffffffffffffffffffffffffffffff16815260200184815260200183815260200180602001828103825283818151815260200191508051906020019080838360005b83811015613cfc578082015181840152602081019050613ce1565b50505050905090810190601f168015613d295780820380516001836020036101000a031916815260200191505b509650505050505050602060405180830381600087803b158015613d4c57600080fd5b505af1925050508015613d8057506040513d6020811015613d6c57600080fd5b810190808051906020019092919050505060015b613e8a57613d8c614208565b80613d975750613e39565b806040517f08c379a00000000000000000000000000000000000000000000000000000000081526004018080602001828103825283818151815260200191508051906020019080838360005b83811015613dfe578082015181840152602081019050613de3565b50505050905090810190601f168015613e2b5780820380516001836020036101000a031916815260200191505b509250505060405180910390fd5b6040517f08c379a00000000000000000000000000000000000000000000000000000000081526004018080602001828103825260348152602001806142bf6034913960400191505060405180910390fd5b63f23a6e6160e01b7bffffffffffffffffffffffffffffffffffffffffffffffffffffffff1916817bffffffffffffffffffffffffffffffffffffffffffffffffffffffff191614613f27576040517f08c379a00000000000000000000000000000000000000000000000000000000081526004018080602001828103825260288152602001806142f36028913960400191505060405180910390fd5b505b505050505050565b600073ffffffffffffffffffffffffffffffffffffffff168373ffffffffffffffffffffffffffffffffffffffff161415613fb7576040517f08c379a00000000000000000000000000000000000000000000000000000000081526004018080602001828103825260238152602001806143ea6023913960400191505060405180910390fd5b6000613fc1613741565b9050613ff181856000613fd387613bb4565b613fdc87613bb4565b60405180602001604052806000815250613749565b61406e82604051806060016040528060248152602001614346602491396001600087815260200190815260200160002060008873ffffffffffffffffffffffffffffffffffffffff1673ffffffffffffffffffffffffffffffffffffffff168152602001908152602001600020546137519092919063ffffffff16565b6001600085815260200190815260200160002060008673ffffffffffffffffffffffffffffffffffffffff1673ffffffffffffffffffffffffffffffffffffffff16815260200190815260200160002081905550600073ffffffffffffffffffffffffffffffffffffffff168473ffffffffffffffffffffffffffffffffffffffff168273ffffffffffffffffffffffffffffffffffffffff167fc3d58168c5ae7397731d063d5bbf3d657854427343f4c083240f7aacaa2d0f628686604051808381526020018281526020019250505060405180910390a450505050565b828054600181600116156101000203166002900490600052602060002090601f016020900481019282601f1061418e57805160ff19168380011785556141bc565b828001600101855582156141bc579182015b828111156141bb5782518255916020019190600101906141a0565b5b5090506141c991906141cd565b5090565b5b808211156141e65760008160009055506001016141ce565b5090565b6000601f19601f8301169050919050565b60008160e01c9050919050565b600060443d1015614218576142bb565b60046000803e6142296000516141fb565b6308c379a0811461423a57506142bb565b60405160043d036004823e80513d602482011167ffffffffffffffff82111715614266575050506142bb565b808201805167ffffffffffffffff8111156142855750505050506142bb565b8060208301013d85018111156142a0575050505050506142bb565b6142a9826141ea565b60208401016040528296505050505050505b9056fe455243313135353a207472616e7366657220746f206e6f6e2045524331313535526563656976657220696d706c656d656e746572455243313135353a204552433131353552656365697665722072656a656374656420746f6b656e73455243313135353a2062616c616e636520717565727920666f7220746865207a65726f2061646472657373455243313135353a206275726e20616d6f756e7420657863656564732062616c616e6365455243313135353a2063616c6c6572206973206e6f74206f776e6572206e6f7220617070726f766564455243313135353a207472616e7366657220746f20746865207a65726f2061646472657373455243313135353a207472616e736665722063616c6c6572206973206e6f74206f776e6572206e6f7220617070726f766564455243313135353a206275726e2066726f6d20746865207a65726f2061646472657373455243313135353a20696e73756666696369656e742062616c616e636520666f72207472616e73666572455243313135353a2073657474696e6720617070726f76616c2073746174757320666f722073656c66455243313135353a206163636f756e747320616e6420696473206c656e677468206d69736d61746368455243313135353a2069647320616e6420616d6f756e7473206c656e677468206d69736d61746368455243313135353a206d696e7420746f20746865207a65726f2061646472657373a264697066735822122067468a7af82e7edd4ea50a61e4646a95af2892c7bd7f9c0a820ea4244853ebc864736f6c63430007000033455243313135353a207472616e7366657220746f206e6f6e2045524331313535526563656976657220696d706c656d656e746572455243313135353a204552433131353552656365697665722072656a656374656420746f6b656e7368747470733a2f2f676174657761792e70696e6174612e636c6f75642f697066732f516d536a42704e3531486751556570645567644264646d5a4156746a3457644350364e744b684544483163525170455243313135353a206d696e7420746f20746865207a65726f2061646472657373",
  "devdoc": {
    "kind": "dev",
    "methods": {
      "balanceOf(address,uint256)": {
        "details": "See {IERC1155-balanceOf}. Requirements: - `account` cannot be the zero address."
      },
      "balanceOfBatch(address[],uint256[])": {
        "details": "See {IERC1155-balanceOfBatch}. Requirements: - `accounts` and `ids` must have the same length."
      },
      "isApprovedForAll(address,address)": {
        "details": "See {IERC1155-isApprovedForAll}."
      },
      "safeBatchTransferFrom(address,address,uint256[],uint256[],bytes)": {
        "details": "See {IERC1155-safeBatchTransferFrom}."
      },
      "safeTransferFrom(address,address,uint256,uint256,bytes)": {
        "details": "See {IERC1155-safeTransferFrom}."
      },
      "setApprovalForAll(address,bool)": {
        "details": "See {IERC1155-setApprovalForAll}."
      },
      "supportsInterface(bytes4)": {
        "details": "See {IERC165-supportsInterface}. Time complexity O(1), guaranteed to always use less than 30 000 gas."
      },
      "uri(uint256)": {
        "details": "See {IERC1155MetadataURI-uri}. This implementation returns the same URI for *all* token types. It relies on the token type ID substitution mechanism https://eips.ethereum.org/EIPS/eip-1155#metadata[defined in the EIP]. Clients calling this function must replace the `\\{id\\}` substring with the actual token type ID."
      }
    },
    "version": 1
  },
  "userdoc": {
    "kind": "user",
    "methods": {},
    "version": 1
  },
  "storageLayout": {
    "storage": [
      {
        "astId": 13,
        "contract": "contracts/BusinessCard_ZOE.sol:BusinessCard_ZOE",
        "label": "_supportedInterfaces",
        "offset": 0,
        "slot": "0",
        "type": "t_mapping(t_bytes4,t_bool)"
      },
      {
        "astId": 453,
        "contract": "contracts/BusinessCard_ZOE.sol:BusinessCard_ZOE",
        "label": "_balances",
        "offset": 0,
        "slot": "1",
        "type": "t_mapping(t_uint256,t_mapping(t_address,t_uint256))"
      },
      {
        "astId": 459,
        "contract": "contracts/BusinessCard_ZOE.sol:BusinessCard_ZOE",
        "label": "_operatorApprovals",
        "offset": 0,
        "slot": "2",
        "type": "t_mapping(t_address,t_mapping(t_address,t_bool))"
      },
      {
        "astId": 461,
        "contract": "contracts/BusinessCard_ZOE.sol:BusinessCard_ZOE",
        "label": "_uri",
        "offset": 0,
        "slot": "3",
        "type": "t_string_storage"
      },
      {
        "astId": 1936,
        "contract": "contracts/BusinessCard_ZOE.sol:BusinessCard_ZOE",
        "label": "_name",
        "offset": 0,
        "slot": "4",
        "type": "t_string_storage"
      },
      {
        "astId": 1939,
        "contract": "contracts/BusinessCard_ZOE.sol:BusinessCard_ZOE",
        "label": "_symbol",
        "offset": 0,
        "slot": "5",
        "type": "t_string_storage"
      },
      {
        "astId": 1942,
        "contract": "contracts/BusinessCard_ZOE.sol:BusinessCard_ZOE",
        "label": "Team",
        "offset": 0,
        "slot": "6",
        "type": "t_string_storage"
      },
      {
        "astId": 1945,
        "contract": "contracts/BusinessCard_ZOE.sol:BusinessCard_ZOE",
        "label": "Job_Title",
        "offset": 0,
        "slot": "7",
        "type": "t_string_storage"
      },
      {
        "astId": 1948,
        "contract": "contracts/BusinessCard_ZOE.sol:BusinessCard_ZOE",
        "label": "Email",
        "offset": 0,
        "slot": "8",
        "type": "t_string_storage"
      },
      {
        "astId": 1951,
        "contract": "contracts/BusinessCard_ZOE.sol:BusinessCard_ZOE",
        "label": "Twitter",
        "offset": 0,
        "slot": "9",
        "type": "t_string_storage"
      },
      {
        "astId": 1954,
        "contract": "contracts/BusinessCard_ZOE.sol:BusinessCard_ZOE",
        "label": "Personal_Twitter",
        "offset": 0,
        "slot": "10",
        "type": "t_string_storage"
      },
      {
        "astId": 1957,
        "contract": "contracts/BusinessCard_ZOE.sol:BusinessCard_ZOE",
        "label": "Design_by",
        "offset": 0,
        "slot": "11",
        "type": "t_string_storage"
      },
      {
        "astId": 1960,
        "contract": "contracts/BusinessCard_ZOE.sol:BusinessCard_ZOE",
        "label": "SFX_Design",
        "offset": 0,
        "slot": "12",
        "type": "t_string_storage"
      },
      {
        "astId": 1963,
        "contract": "contracts/BusinessCard_ZOE.sol:BusinessCard_ZOE",
        "label": "owner_1",
        "offset": 0,
        "slot": "13",
        "type": "t_address"
      },
      {
        "astId": 1966,
        "contract": "contracts/BusinessCard_ZOE.sol:BusinessCard_ZOE",
        "label": "owner_2",
        "offset": 0,
        "slot": "14",
        "type": "t_address"
      }
    ],
    "types": {
      "t_address": {
        "encoding": "inplace",
        "label": "address",
        "numberOfBytes": "20"
      },
      "t_bool": {
        "encoding": "inplace",
        "label": "bool",
        "numberOfBytes": "1"
      },
      "t_bytes4": {
        "encoding": "inplace",
        "label": "bytes4",
        "numberOfBytes": "4"
      },
      "t_mapping(t_address,t_bool)": {
        "encoding": "mapping",
        "key": "t_address",
        "label": "mapping(address => bool)",
        "numberOfBytes": "32",
        "value": "t_bool"
      },
      "t_mapping(t_address,t_mapping(t_address,t_bool))": {
        "encoding": "mapping",
        "key": "t_address",
        "label": "mapping(address => mapping(address => bool))",
        "numberOfBytes": "32",
        "value": "t_mapping(t_address,t_bool)"
      },
      "t_mapping(t_address,t_uint256)": {
        "encoding": "mapping",
        "key": "t_address",
        "label": "mapping(address => uint256)",
        "numberOfBytes": "32",
        "value": "t_uint256"
      },
      "t_mapping(t_bytes4,t_bool)": {
        "encoding": "mapping",
        "key": "t_bytes4",
        "label": "mapping(bytes4 => bool)",
        "numberOfBytes": "32",
        "value": "t_bool"
      },
      "t_mapping(t_uint256,t_mapping(t_address,t_uint256))": {
        "encoding": "mapping",
        "key": "t_uint256",
        "label": "mapping(uint256 => mapping(address => uint256))",
        "numberOfBytes": "32",
        "value": "t_mapping(t_address,t_uint256)"
      },
      "t_string_storage": {
        "encoding": "bytes",
        "label": "string",
        "numberOfBytes": "32"
      },
      "t_uint256": {
        "encoding": "inplace",
        "label": "uint256",
        "numberOfBytes": "32"
      }
    }
  }
}